:100000000C9455000C9400000C9400000C9400001B
:100010000C9400000C9400000C9485000C940000DB
:100020000C9400000C9400000C9400000C94000050
:100030000C9400000C9400000C9400000C94000040
:100040000C9400000C9400000C9400000C94000030
:100050000C9400001027E80364000A00010000105F
:1000600000011000010001000000000000002564F4
:100070000A004F43523141482076616C652C20259F
:10008000780A004F435231414C2076616C6520253F
:10009000780A00434F4D204F4B200A0001006201B7
:1000A00066000600060068000000F894EE27ECBB2E
:1000B000F1E0FBBFEBBFE5BFF8E1F1BDE1BD8DE0D5
:1000C000A2E0BB27ED938A95E9F780E094E0A0E6F3
:1000D000ED930197E9F7ECE9F0E0859195910097B0
:1000E00061F0A591B59105901590BF01F0010590C3
:1000F0000D920197E1F7FB01F0CFEFE5EDBFE4E0F2
:10010000EEBFC0E6D1E00C94AA00EA93FA93EFB7F1
:10011000EA93E0E0E0936201E0936301E09164011F
:10012000F0916501309739F0E0E0E0936401E093ED
:100130006501949807C0E1E0F0E0E0936401F0937A
:100140006501949AE0E0EDBDECBDE991EFBFF99156
:10015000E991189518D1DDD016D115D1939A35D1E2
:100160007E2EE72DF0E0E936A0E0FA0731F0E93421
:10017000A0E0FA0711F00C947301E0E0EEBDEDBDD4
:10018000ECBD01D1AA24BB24E1E0F0E0E0936201E0
:10019000F09363018799FECFECE0EEBD02D1EEE66D
:1001A000F0E0FA93EA93F2010E94D0030E94DD038B
:1001B00084E00E9480032696E6D0E1E3F0E04F0160
:1001C00000240814090414F00C946801E091620101
:1001D000F09163013097D1F7E1E0F0E0E093620144
:1001E000F0936301DED0EEE6F0E0FA93EA93F201D9
:1001F0000E94D0030E94DD0384E00E9480032696C3
:10020000C2D05F9B61C0E1D06E2EE62DF0E0E435F8
:10021000A0E0FA0771F4E1E0F0E0E0936201F0930E
:100220006301E0E0EEBDEDBDECBDADD0ACD0ABD038
:1002300095CFE535A0E0FA0731F4E0916001EF5F7A
:10024000E09360011FC0E537A0E0FA0731F4E091C8
:100250006101E65FE093610115C0EC34A0E0FA07AC
:1002600039F4E0916001F0E03197E09360010AC059
:10027000EC36A0E0FA0731F4E0916101F0E03A9742
:10028000E0936101E0916001EBBDE0916101EABDA5
:10029000E2E7F0E0FA93EA93EBB5FF2766277727CA
:1002A0000E94DD0384E00E9480032696E3E8F0E0EC
:1002B000FA93EA93EAB5FF27662777270E94DD03C2
:1002C00084E00E9480032696F40131974F0178CF95
:1002D000E1E0F0E0E0936201F0936301E0E0EEBD65
:1002E000EDBDECBD4FCFE037A0E0FA0721F0E035DF
:1002F000A0E0FA0751F4E3E9F0E0FA93EA9380E032
:100300000E94800322963FD002C07A9262D026CF0C
:10031000FFCFE0E0E5BFEABBE0EFEBBBEFEFE7BB11
:10032000E8BBE0E0E4BBEFEFE5BBEFE1E1BBEFEF03
:10033000E2BBE0E0EBB9E8E1EAB9E6E8E0BDE0E025
:10034000E0BDE7E1E9B9E6E8E6B9E0ECE7B9E0E00D
:10035000EFBDECE0EEBDE0E0EDBDECBDE7BDE6BD20
:10036000E1E2E0936001EDEAE0936101E091600178
:10037000EBBDE0916101EABDE0E0E9BDE8BDE0E18F
:10038000E9BF789408959398E2E3F0E0FA93EA9352
:100390000E94BC03EFE1F3E04E165F060CF4939A63
:1003A0000895E0ECE7B9E6E4F0E0FA93EA930E94FE
:1003B000BC03369AEAE0F0E0FA93EA930E94BC03A9
:1003C000E4B1F5B1F3702F0108955F9BFECFECB15E
:1003D00008955D9BFECFE881ECB921960895EA81EE
:1003E000EA93F7DFA881B981ED91FD913196FE93F3
:1003F000EE932396089526970E94E20310E0AC85C1
:10040000BD85E0E0F0E0ED93FC93EA89FB8931964D
:10041000EA8BFB8B3197E4912E2FE03011F40C9492
:100420007803E12FE03069F4253211F411E008C0BF
:100430002A93ED85FE85FA93EA93E989FA8909956D
:1004400056C1E130D9F4253249F42A93ED85FE8571
:10045000FA93EA93E989FA89099548C112E040E0E4
:1004600000E02D3211F401E042C12B3211F44BE2D5
:100470003EC1203211F440E23AC102C0E23039F408
:1004800050E013E0203311F4006831C104C0E330C0
:1004900011F00C947703203310F02A3308F007C0D2
:1004A000AAE05A9F502DE22FE0535E0F20C1E22FA9
:1004B000E33679F4E889F9893497E88BF98BA481DC
:1004C000AA93ED85FE85FA93EA93E989FA8909955D
:1004D0000DC1E33791F4E889F9893497E88BF98BFA
:1004E000A889B98914960E94D503EE83FF83FA93F5
:1004F000EA930E94A7031E2F14C0E037B1F4E889E5
:10050000F9893497E88BF98BA889B98914960E94E8
:10051000D503EE83FF83FA93EA930E94B1031E2F63
:10052000086002600F7730E043C0E43611F0E9362E
:1005300011F4046002C0E53731F4E4E5F0E0EE8345
:10054000FF8315E00DC0E83511F4086004C0E837FA
:1005500011F00C947603EEE5F0E0EE83FF8314E0F7
:1005600002FF1AC0E889F9893497E88BF98BA889CA
:10057000B98914960E94D503EA87FB87AB85AA2325
:100580002AF40E94CC03EA87FB874DE2403011F049
:100590001F5F01C00B7F0CC0E889F9893497E88B95
:1005A000F98BA889B98914960E94D503EA87FB873D
:1005B00000FD17C01517A8F407FF08C002FF04C00C
:1005C0000B7F242F115001C020E301C020E22A93A9
:1005D000ED85FE85FA93EA93E989FA8909955150E8
:1005E000E9CF312F01FF1DC03030D1F003FF06C02D
:1005F000EE81FF812591EE83FF8305C0AE81BF812F
:100600002D91AE83BF832A93ED85FE85FA93EA93FD
:10061000E989FA890995503009F051503150E4CFF9
:1006200056C020E3EE81FF810E94D903E887F98755
:10063000EE81FF813296EE83FF83E885F985AA85F6
:10064000BB85AE17BF0750F02F5FA885B985EA8537
:10065000FB85EA1BFB0BEA87FB87EFCF2A3328F0E9
:1006600003FF02C0295F01C0295D04FD1FC02133C3
:1006700020F4A885B985119709F409C0531710F023
:1006800000FF01C01EC020E207FF10C020E3006190
:1006900002FF0CC00B7F4A93ED85FE85FA93EA9327
:1006A000E989FA890995503009F051502A93ED856E
:1006B000FE85FA93EA93E989FA890995503009F0A1
:1006C00051503150A885B985129708F0AACF00FF84
:1006D0000DC0503059F05150E0E2EA93ED85FE85AF
:1006E000FA93EA93E989FA890995F3CF10E08DCE60
:1006F000AC85BD850E94D5030E94E90364960895E8
:10070000FF92F82E26971A930A93DE0114960E9400
:10071000C8038D01E0E0EC83ED83EE83EF83DE011F
:1007200018960E94C8030E94D503FA93EA931A937D
:100730000A93EFEEF1E0FA93EA93FE013896FA930A
:10074000EA9359DE198108812896FF900895A991AE
:10075000B991EE27FF276D91662311F03196FBCFFB
:100760000895AA27BB27E991F9910590002011F07F
:100770001196FBCFFD010895E991F991309639F07A
:1007800080ED97E00197F1F7A8953197C9F70895A3
:100790000024AF0DB01D0895F195E195F040089546
:1007A0006F2F660F660B762F0895ED91FC911197D0
:1007B00008950590F491E02D08957A936A93FA9341
:1007C000EA9308955A934A933A932A931A930A9371
:1007D00008955D814C813B812A81198108810895AA
:00000001FF
